{
  "contractName": "Bidding",
  "abi": [
    {
      "anonymous": false,
      "inputs": [
        {
          "indexed": true,
          "internalType": "uint256",
          "name": "project_id",
          "type": "uint256"
        },
        {
          "indexed": false,
          "internalType": "address",
          "name": "bidder",
          "type": "address"
        },
        {
          "indexed": false,
          "internalType": "uint256",
          "name": "amount",
          "type": "uint256"
        }
      ],
      "name": "BidderLoges",
      "type": "event"
    },
    {
      "anonymous": false,
      "inputs": [
        {
          "indexed": false,
          "internalType": "address",
          "name": "party",
          "type": "address"
        },
        {
          "indexed": false,
          "internalType": "string",
          "name": "name",
          "type": "string"
        }
      ],
      "name": "createParties",
      "type": "event"
    },
    {
      "anonymous": false,
      "inputs": [
        {
          "indexed": false,
          "internalType": "address",
          "name": "party",
          "type": "address"
        },
        {
          "indexed": false,
          "internalType": "string",
          "name": "name",
          "type": "string"
        }
      ],
      "name": "deletedParties",
      "type": "event"
    },
    {
      "inputs": [
        {
          "internalType": "address",
          "name": "party",
          "type": "address"
        },
        {
          "internalType": "string",
          "name": "name",
          "type": "string"
        }
      ],
      "name": "createParty",
      "outputs": [],
      "stateMutability": "nonpayable",
      "type": "function"
    },
    {
      "inputs": [
        {
          "internalType": "address",
          "name": "party",
          "type": "address"
        },
        {
          "internalType": "string",
          "name": "name",
          "type": "string"
        }
      ],
      "name": "deleteParty",
      "outputs": [],
      "stateMutability": "nonpayable",
      "type": "function"
    },
    {
      "inputs": [
        {
          "internalType": "address",
          "name": "addr",
          "type": "address"
        }
      ],
      "name": "providePermission",
      "outputs": [],
      "stateMutability": "nonpayable",
      "type": "function"
    },
    {
      "inputs": [
        {
          "internalType": "address",
          "name": "addr",
          "type": "address"
        }
      ],
      "name": "revokePermission",
      "outputs": [],
      "stateMutability": "nonpayable",
      "type": "function"
    },
    {
      "inputs": [
        {
          "internalType": "uint256",
          "name": "project_id",
          "type": "uint256"
        }
      ],
      "name": "validateProject",
      "outputs": [],
      "stateMutability": "nonpayable",
      "type": "function"
    },
    {
      "inputs": [
        {
          "internalType": "uint256",
          "name": "project_id",
          "type": "uint256"
        },
        {
          "internalType": "uint256",
          "name": "_seconds",
          "type": "uint256"
        }
      ],
      "name": "createProject",
      "outputs": [],
      "stateMutability": "nonpayable",
      "type": "function"
    },
    {
      "inputs": [
        {
          "internalType": "uint256",
          "name": "project_id",
          "type": "uint256"
        }
      ],
      "name": "bid",
      "outputs": [],
      "stateMutability": "payable",
      "type": "function",
      "payable": true
    },
    {
      "inputs": [
        {
          "internalType": "uint256",
          "name": "project_id",
          "type": "uint256"
        }
      ],
      "name": "endAuction",
      "outputs": [],
      "stateMutability": "nonpayable",
      "type": "function"
    }
  ],
  "bytecode": "0x608060405234801561001057600080fd5b50611a7f806100206000396000f3fe60806040526004361061007b5760003560e01c8063570214691161004e5780635702146914610117578063a3bf5b9a14610140578063b9a2de3a14610169578063c3b5b0dc146101925761007b565b806302da667b14610080578063139ba0d2146100a957806342dce1ac146100d2578063454a2ab3146100fb575b600080fd5b34801561008c57600080fd5b506100a760048036038101906100a29190611011565b6101bb565b005b3480156100b557600080fd5b506100d060048036038101906100cb91906111f5565b6103ff565b005b3480156100de57600080fd5b506100f960048036038101906100f49190611251565b61043c565b005b6101156004803603810190610110919061127e565b610497565b005b34801561012357600080fd5b5061013e6004803603810190610139919061127e565b610843565b005b34801561014c57600080fd5b5061016760048036038101906101629190611251565b6109b5565b005b34801561017557600080fd5b50610190600480360381019061018b919061127e565b610a10565b005b34801561019e57600080fd5b506101b960048036038101906101b491906111f5565b610e60565b005b60006001600084815260200190815260200160002090508060030160149054906101000a900460ff1615610224576040517f08c379a000000000000000000000000000000000000000000000000000000000815260040161021b90611308565b60405180910390fd5b6040518061010001604052808481526020013373ffffffffffffffffffffffffffffffffffffffff16815260200160008152602001600073ffffffffffffffffffffffffffffffffffffffff168152602001600115158152602001838152602001600015158152602001600067ffffffffffffffff8111156102a9576102a86110ca565b5b6040519080825280602002602001820160405280156102d75781602001602082028036833780820191505090505b50815250600160008581526020019081526020016000206000820151816000015560208201518160010160006101000a81548173ffffffffffffffffffffffffffffffffffffffff021916908373ffffffffffffffffffffffffffffffffffffffff1602179055506040820151816002015560608201518160030160006101000a81548173ffffffffffffffffffffffffffffffffffffffff021916908373ffffffffffffffffffffffffffffffffffffffff16021790555060808201518160030160146101000a81548160ff02191690831515021790555060a0820151816004015560c08201518160050160006101000a81548160ff02191690831515021790555060e08201518160060190805190602001906103f6929190610f20565b50905050505050565b7f0eeb22054a2bf61263a13d14ff78b234c3925188ec8d4d5db18fb196570a5f5782826040516104309291906113a5565b60405180910390a15050565b6001600260008373ffffffffffffffffffffffffffffffffffffffff1673ffffffffffffffffffffffffffffffffffffffff16815260200190815260200160002060006101000a81548160ff02191690831515021790555050565b60006001600083815260200190815260200160002090508060030160149054906101000a900460ff166104ff576040517f08c379a00000000000000000000000000000000000000000000000000000000081526004016104f690611421565b60405180910390fd5b8060050160009054906101000a900460ff16610550576040517f08c379a00000000000000000000000000000000000000000000000000000000081526004016105479061148d565b60405180910390fd5b42816004015411610596576040517f08c379a000000000000000000000000000000000000000000000000000000000815260040161058d9061151f565b60405180910390fd5b6105c38160010160009054906101000a900473ffffffffffffffffffffffffffffffffffffffff16610e9d565b15610603576040517f08c379a00000000000000000000000000000000000000000000000000000000081526004016105fa906115b1565b60405180910390fd5b60003403610646576040517f08c379a000000000000000000000000000000000000000000000000000000000815260040161063d9061161d565b60405180910390fd5b600080600084815260200190815260200160002060003373ffffffffffffffffffffffffffffffffffffffff1673ffffffffffffffffffffffffffffffffffffffff16815260200190815260200160002054146106d8576040517f08c379a00000000000000000000000000000000000000000000000000000000081526004016106cf906116af565b60405180910390fd5b60008160020154036106f25734816002018190555061074c565b806002015434101561074b57338160030160006101000a81548173ffffffffffffffffffffffffffffffffffffffff021916908373ffffffffffffffffffffffffffffffffffffffff1602179055503481600201819055505b5b3460008084815260200190815260200160002060003373ffffffffffffffffffffffffffffffffffffffff1673ffffffffffffffffffffffffffffffffffffffff1681526020019081526020016000208190555080600601339080600181540180825580915050600190039060005260206000200160009091909190916101000a81548173ffffffffffffffffffffffffffffffffffffffff021916908373ffffffffffffffffffffffffffffffffffffffff160217905550817fe7483ed9d6f13222b32d5c4f86cd010429d56506e24b75a17859254f6b27439d33346040516108379291906116de565b60405180910390a25050565b60006001600083815260200190815260200160002090508060030160149054906101000a900460ff166108ab576040517f08c379a00000000000000000000000000000000000000000000000000000000081526004016108a290611753565b60405180910390fd5b600260003373ffffffffffffffffffffffffffffffffffffffff1673ffffffffffffffffffffffffffffffffffffffff16815260200190815260200160002060009054906101000a900460ff16610937576040517f08c379a000000000000000000000000000000000000000000000000000000000815260040161092e906117e5565b60405180910390fd5b60036000838152602001908152602001600020600081548092919061095b90611834565b919050555060026003600084815260200190815260200160002054106109b15760018160050160006101000a81548160ff0219169083151502179055508060040154426109a8919061187c565b81600401819055505b5050565b6000600260008373ffffffffffffffffffffffffffffffffffffffff1673ffffffffffffffffffffffffffffffffffffffff16815260200190815260200160002060006101000a81548160ff02191690831515021790555050565b60006001600083815260200190815260200160002060405180610100016040529081600082015481526020016001820160009054906101000a900473ffffffffffffffffffffffffffffffffffffffff1673ffffffffffffffffffffffffffffffffffffffff1673ffffffffffffffffffffffffffffffffffffffff168152602001600282015481526020016003820160009054906101000a900473ffffffffffffffffffffffffffffffffffffffff1673ffffffffffffffffffffffffffffffffffffffff1673ffffffffffffffffffffffffffffffffffffffff1681526020016003820160149054906101000a900460ff16151515158152602001600482015481526020016005820160009054906101000a900460ff1615151515815260200160068201805480602002602001604051908101604052809291908181526020018280548015610bb657602002820191906000526020600020905b8160009054906101000a900473ffffffffffffffffffffffffffffffffffffffff1673ffffffffffffffffffffffffffffffffffffffff1681526020019060010190808311610b6c575b50505050508152505090508060c00151610c05576040517f08c379a0000000000000000000000000000000000000000000000000000000008152600401610bfc9061148d565b60405180910390fd5b428160a0015110610c4b576040517f08c379a0000000000000000000000000000000000000000000000000000000008152600401610c42906118fc565b60405180910390fd5b610c588160200151610e9d565b610c97576040517f08c379a0000000000000000000000000000000000000000000000000000000008152600401610c8e9061198e565b60405180910390fd5b6000816040015103610cde576040517f08c379a0000000000000000000000000000000000000000000000000000000008152600401610cd5906119fa565b60405180910390fd5b6000816020015173ffffffffffffffffffffffffffffffffffffffff166108fc83604001519081150290604051600060405180830381858888f19350505050905080610d5e576000826060019073ffffffffffffffffffffffffffffffffffffffff16908173ffffffffffffffffffffffffffffffffffffffff16815250505b60005b8260e0015151811015610e5a57826060015173ffffffffffffffffffffffffffffffffffffffff168360e001518281518110610da057610d9f611a1a565b5b602002602001015173ffffffffffffffffffffffffffffffffffffffff1614610e475760008360e001518281518110610ddc57610ddb611a1a565b5b60200260200101519050600080600087815260200190815260200160002060008373ffffffffffffffffffffffffffffffffffffffff1673ffffffffffffffffffffffffffffffffffffffff168152602001908152602001600020549050610e448282610ed5565b50505b8080610e5290611834565b915050610d61565b50505050565b7f7db547ffcbc3e5a4f2ca2ebc7efc8db4da97e82fc20ccbc97b29c65c0d273ca28282604051610e919291906113a5565b60405180910390a15050565b60003373ffffffffffffffffffffffffffffffffffffffff168273ffffffffffffffffffffffffffffffffffffffff16149050919050565b8173ffffffffffffffffffffffffffffffffffffffff166108fc829081150290604051600060405180830381858888f19350505050158015610f1b573d6000803e3d6000fd5b505050565b828054828255906000526020600020908101928215610f99579160200282015b82811115610f985782518260006101000a81548173ffffffffffffffffffffffffffffffffffffffff021916908373ffffffffffffffffffffffffffffffffffffffff16021790555091602001919060010190610f40565b5b509050610fa69190610faa565b5090565b5b80821115610fc3576000816000905550600101610fab565b5090565b6000604051905090565b600080fd5b600080fd5b6000819050919050565b610fee81610fdb565b8114610ff957600080fd5b50565b60008135905061100b81610fe5565b92915050565b6000806040838503121561102857611027610fd1565b5b600061103685828601610ffc565b925050602061104785828601610ffc565b9150509250929050565b600073ffffffffffffffffffffffffffffffffffffffff82169050919050565b600061107c82611051565b9050919050565b61108c81611071565b811461109757600080fd5b50565b6000813590506110a981611083565b92915050565b600080fd5b600080fd5b6000601f19601f8301169050919050565b7f4e487b7100000000000000000000000000000000000000000000000000000000600052604160045260246000fd5b611102826110b9565b810181811067ffffffffffffffff82111715611121576111206110ca565b5b80604052505050565b6000611134610fc7565b905061114082826110f9565b919050565b600067ffffffffffffffff8211156111605761115f6110ca565b5b611169826110b9565b9050602081019050919050565b82818337600083830152505050565b600061119861119384611145565b61112a565b9050828152602081018484840111156111b4576111b36110b4565b5b6111bf848285611176565b509392505050565b600082601f8301126111dc576111db6110af565b5b81356111ec848260208601611185565b91505092915050565b6000806040838503121561120c5761120b610fd1565b5b600061121a8582860161109a565b925050602083013567ffffffffffffffff81111561123b5761123a610fd6565b5b611247858286016111c7565b9150509250929050565b60006020828403121561126757611266610fd1565b5b60006112758482850161109a565b91505092915050565b60006020828403121561129457611293610fd1565b5b60006112a284828501610ffc565b91505092915050565b600082825260208201905092915050565b7f50726f6a65637420616c72656164792065786973740000000000000000000000600082015250565b60006112f26015836112ab565b91506112fd826112bc565b602082019050919050565b60006020820190508181036000830152611321816112e5565b9050919050565b61133181611071565b82525050565b600081519050919050565b60005b83811015611360578082015181840152602081019050611345565b60008484015250505050565b600061137782611337565b61138181856112ab565b9350611391818560208601611342565b61139a816110b9565b840191505092915050565b60006040820190506113ba6000830185611328565b81810360208301526113cc818461136c565b90509392505050565b7f50726f6a65637420446f65736e27742065786973740000000000000000000000600082015250565b600061140b6015836112ab565b9150611416826113d5565b602082019050919050565b6000602082019050818103600083015261143a816113fe565b9050919050565b7f50726f6a656374206973206e6f742076616c6964617465642079657400000000600082015250565b6000611477601c836112ab565b915061148282611441565b602082019050919050565b600060208201905081810360008301526114a68161146a565b9050919050565b7f42696464696e6720697320656e64656420666f7220746869732070726f6a656360008201527f7400000000000000000000000000000000000000000000000000000000000000602082015250565b60006115096021836112ab565b9150611514826114ad565b604082019050919050565b60006020820190508181036000830152611538816114fc565b9050919050565b7f50726f6a65637420497373756572206973206e6f7420616c6c6f77656420746f60008201527f2062696400000000000000000000000000000000000000000000000000000000602082015250565b600061159b6024836112ab565b91506115a68261153f565b604082019050919050565b600060208201905081810360008301526115ca8161158e565b9050919050565b7f5a65726f20616d6f756e74206973206e6f7420616c6c6f7765642e0000000000600082015250565b6000611607601b836112ab565b9150611612826115d1565b602082019050919050565b60006020820190508181036000830152611636816115fa565b9050919050565b7f596f75206861766520616c72656164792062696464656420666f72207468697360008201527f2070726f6a656374000000000000000000000000000000000000000000000000602082015250565b60006116996028836112ab565b91506116a48261163d565b604082019050919050565b600060208201905081810360008301526116c88161168c565b9050919050565b6116d881610fdb565b82525050565b60006040820190506116f36000830185611328565b61170060208301846116cf565b9392505050565b7f50726f6a65637420646f65736e27742065786973740000000000000000000000600082015250565b600061173d6015836112ab565b915061174882611707565b602082019050919050565b6000602082019050818103600083015261176c81611730565b9050919050565b7f596f752068617665206e6f207065726d697373696f6e20746f2076616c69646160008201527f74652070726f6a65637400000000000000000000000000000000000000000000602082015250565b60006117cf602a836112ab565b91506117da82611773565b604082019050919050565b600060208201905081810360008301526117fe816117c2565b9050919050565b7f4e487b7100000000000000000000000000000000000000000000000000000000600052601160045260246000fd5b600061183f82610fdb565b91507fffffffffffffffffffffffffffffffffffffffffffffffffffffffffffffffff820361187157611870611805565b5b600182019050919050565b600061188782610fdb565b915061189283610fdb565b92508282019050808211156118aa576118a9611805565b5b92915050565b7f42696464696e67206973207374696c6c20676f696e67206f6e00000000000000600082015250565b60006118e66019836112ab565b91506118f1826118b0565b602082019050919050565b60006020820190508181036000830152611915816118d9565b9050919050565b7f4f6e6c7920746865206f776e65722063616e20656e642074686520617563746960008201527f6f6e2e0000000000000000000000000000000000000000000000000000000000602082015250565b60006119786023836112ab565b91506119838261191c565b604082019050919050565b600060208201905081810360008301526119a78161196b565b9050919050565b7f5468657265206973206e6f2062696420617420746865206d6f6d656e742e0000600082015250565b60006119e4601e836112ab565b91506119ef826119ae565b602082019050919050565b60006020820190508181036000830152611a13816119d7565b9050919050565b7f4e487b7100000000000000000000000000000000000000000000000000000000600052603260045260246000fdfea264697066735822122091814f3e6b617d9cffd3543237262ffa39a8da1377736acc707c63228d24f6f364736f6c63430008120033",
  "immutableReferences": {},
  "source": "// SPDX-License-Identifier: MIT\r\n\r\npragma solidity ^0.8.0;\r\n\r\ncontract Bidding {\r\n\r\n    struct Project{\r\n        uint projectId;\r\n        address payable owner;\r\n        uint highestBid;\r\n        address payable highestBidder;\r\n        bool exists;\r\n        uint endTime;\r\n        bool validated;\r\n        address[] bidAdd;\r\n    }\r\n\r\n\r\n    event BidderLoges(uint indexed project_id,address bidder, uint amount);\r\n    event createParties(address party, string name);\r\n    event deletedParties(address party, string name);\r\n\r\n    mapping(uint=>mapping(address=>uint)) bids;\r\n    mapping(uint => Project) projects;\r\n    mapping(address => bool) permission;\r\n    mapping(uint => uint) count_validator;\r\n\r\n    function createParty(address party, string memory name) public{\r\n        emit createParties(party,name);\r\n    }\r\n\r\n    function deleteParty(address party, string memory name) public{\r\n        emit deletedParties(party,name);\r\n    }\r\n\r\n    function providePermission(address addr) public{\r\n        permission[addr] = true;\r\n    }\r\n\r\n    function revokePermission(address addr) public{\r\n        permission[addr] = false;\r\n    }\r\n\r\n    function validateProject(uint project_id) public{\r\n        Project storage temp = projects[project_id];\r\n        require(temp.exists,\"Project doesn't exist\");\r\n        require(permission[msg.sender],\"You have no permission to validate project\");\r\n        count_validator[project_id]++;\r\n        if(count_validator[project_id]>=2){\r\n            temp.validated = true;\r\n            temp.endTime = block.timestamp+temp.endTime;\r\n        } \r\n    }\r\n\r\n    function createProject(uint project_id , uint _seconds)public {\r\n        Project storage temp = projects[project_id];\r\n        require(!temp.exists,\"Project already exist\");\r\n\r\n        projects[project_id] = Project(\r\n            project_id,\r\n            payable(msg.sender),\r\n            0,\r\n            payable(address(0)),\r\n            true,\r\n            _seconds,\r\n            false,\r\n            new address[](0)\r\n        );\r\n    }\r\n\r\n    \r\n\r\n    function bid(uint project_id) public payable {\r\n\r\n        Project storage temp = projects[project_id];\r\n\r\n        require(temp.exists,\"Project Doesn't exist\");\r\n        require(temp.validated,\"Project is not validated yet\");\r\n        require(temp.endTime>block.timestamp, \"Bidding is ended for this project\");\r\n        require(!IsOwner(temp.owner), \"Project Issuer is not allowed to bid\");\r\n        require(msg.value!=0, \"Zero amount is not allowed.\");\r\n        require(bids[project_id][msg.sender]==0,\"You have already bidded for this project\");\r\n      \r\n        if(temp.highestBid == 0){\r\n            temp.highestBid = msg.value;\r\n        }\r\n        else{\r\n            if(msg.value<temp.highestBid){\r\n                temp.highestBidder = payable(msg.sender);\r\n                temp.highestBid = msg.value;\r\n            }\r\n        }\r\n\r\n        bids[project_id][msg.sender] = msg.value;\r\n        temp.bidAdd.push(msg.sender);\r\n\r\n        emit BidderLoges(project_id , msg.sender , msg.value);\r\n    }\r\n\r\n    function IsOwner(address owner_) private view returns (bool){\r\n        return owner_ == msg.sender;\r\n    }\r\n\r\n    function withdraw(address payable bidder_address,uint amount) private {\r\n    \r\n        bidder_address.transfer(amount);\r\n        // bidder_address.send(amount);\r\n    }\r\n\r\n    function endAuction(uint project_id) public {\r\n\r\n        Project memory temp = projects[project_id];\r\n        require(temp.validated,\"Project is not validated yet\");\r\n        require(temp.endTime<block.timestamp, \"Bidding is still going on\");\r\n        require(IsOwner(temp.owner), \"Only the owner can end the auction.\");\r\n        require(temp.highestBid != 0, \"There is no bid at the moment.\");\r\n\r\n        bool success = temp.owner.send(temp.highestBid);\r\n\r\n        if (!success) {\r\n            temp.highestBidder = payable(address(0));\r\n        }\r\n\r\n\r\n        for( uint256 i = 0 ; i < temp.bidAdd.length ; i++){\r\n            if(temp.bidAdd[i]!=temp.highestBidder){\r\n                address addr = temp.bidAdd[i];\r\n                uint amount = bids[project_id][addr];\r\n                withdraw(payable(addr),amount);\r\n            }\r\n        }\r\n    }\r\n}\r\n",
  "sourcePath": "D:\\BlockChain\\Online-Contracting-System\\client\\src\\contracts\\Bidding.sol",
  "compiler": {
    "name": "solc",
    "version": "0.8.18+commit.87f61d96.Emscripten.clang"
  },
  "schemaVersion": "3.4.11",
  "updatedAt": "2023-04-13T11:24:09.490Z",
  "networkType": "ethereum",
  "devdoc": {
    "kind": "dev",
    "methods": {},
    "version": 1
  },
  "userdoc": {
    "kind": "user",
    "methods": {},
    "version": 1
  }
}