{
  "contractName": "Bidding",
  "abi": [
    {
      "anonymous": false,
      "inputs": [
        {
          "indexed": true,
          "internalType": "string",
          "name": "project_id",
          "type": "string"
        },
        {
          "indexed": false,
          "internalType": "address",
          "name": "bidder",
          "type": "address"
        },
        {
          "indexed": false,
          "internalType": "uint256",
          "name": "amount",
          "type": "uint256"
        }
      ],
      "name": "BidderLoges",
      "type": "event"
    },
    {
      "anonymous": false,
      "inputs": [
        {
          "indexed": false,
          "internalType": "address",
          "name": "party",
          "type": "address"
        },
        {
          "indexed": false,
          "internalType": "string",
          "name": "name",
          "type": "string"
        }
      ],
      "name": "createParties",
      "type": "event"
    },
    {
      "anonymous": false,
      "inputs": [
        {
          "indexed": false,
          "internalType": "address",
          "name": "party",
          "type": "address"
        },
        {
          "indexed": false,
          "internalType": "string",
          "name": "name",
          "type": "string"
        }
      ],
      "name": "deletedParties",
      "type": "event"
    },
    {
      "inputs": [
        {
          "internalType": "string",
          "name": "name",
          "type": "string"
        }
      ],
      "name": "createParty",
      "outputs": [],
      "stateMutability": "nonpayable",
      "type": "function"
    },
    {
      "inputs": [
        {
          "internalType": "string",
          "name": "name",
          "type": "string"
        }
      ],
      "name": "deleteParty",
      "outputs": [],
      "stateMutability": "nonpayable",
      "type": "function"
    },
    {
      "inputs": [
        {
          "internalType": "address",
          "name": "addr",
          "type": "address"
        }
      ],
      "name": "providePermission",
      "outputs": [],
      "stateMutability": "nonpayable",
      "type": "function"
    },
    {
      "inputs": [
        {
          "internalType": "address",
          "name": "addr",
          "type": "address"
        }
      ],
      "name": "revokePermission",
      "outputs": [],
      "stateMutability": "nonpayable",
      "type": "function"
    },
    {
      "inputs": [
        {
          "internalType": "string",
          "name": "project_id",
          "type": "string"
        }
      ],
      "name": "validateProject",
      "outputs": [],
      "stateMutability": "nonpayable",
      "type": "function"
    },
    {
      "inputs": [
        {
          "internalType": "string",
          "name": "project_id",
          "type": "string"
        },
        {
          "internalType": "uint256",
          "name": "_seconds",
          "type": "uint256"
        }
      ],
      "name": "createProject",
      "outputs": [],
      "stateMutability": "nonpayable",
      "type": "function"
    },
    {
      "inputs": [
        {
          "internalType": "string",
          "name": "project_id",
          "type": "string"
        }
      ],
      "name": "bid",
      "outputs": [],
      "stateMutability": "payable",
      "type": "function",
      "payable": true
    },
    {
      "inputs": [
        {
          "internalType": "string",
          "name": "project_id",
          "type": "string"
        }
      ],
      "name": "endAuction",
      "outputs": [],
      "stateMutability": "nonpayable",
      "type": "function"
    }
  ],
  "bytecode": "0x608060405234801561001057600080fd5b50611dab806100206000396000f3fe60806040526004361061007a5760003560e01c806391754a5d1161004e57806391754a5d14610116578063a3bf5b9a1461013f578063ce2ba9bf14610168578063d0ecd582146101915761007a565b80624094db1461007f578063315ec0b3146100a857806342dce1ac146100d15780637aef951c146100fa575b600080fd5b34801561008b57600080fd5b506100a660048036038101906100a191906111ac565b6101ba565b005b3480156100b457600080fd5b506100cf60048036038101906100ca91906111ac565b6101f6565b005b3480156100dd57600080fd5b506100f860048036038101906100f39190611253565b610232565b005b610114600480360381019061010f91906111ac565b61028d565b005b34801561012257600080fd5b5061013d600480360381019061013891906112b6565b61061f565b005b34801561014b57600080fd5b5061016660048036038101906101619190611253565b610890565b005b34801561017457600080fd5b5061018f600480360381019061018a91906111ac565b6108eb565b005b34801561019d57600080fd5b506101b860048036038101906101b391906111ac565b610d95565b005b7f0eeb22054a2bf61263a13d14ff78b234c3925188ec8d4d5db18fb196570a5f5733826040516101eb9291906113a0565b60405180910390a150565b7f7db547ffcbc3e5a4f2ca2ebc7efc8db4da97e82fc20ccbc97b29c65c0d273ca233826040516102279291906113a0565b60405180910390a150565b6001600260008373ffffffffffffffffffffffffffffffffffffffff1673ffffffffffffffffffffffffffffffffffffffff16815260200190815260200160002060006101000a81548160ff02191690831515021790555050565b600060018260405161029f919061140c565b908152602001604051809103902090508060030160149054906101000a900460ff16610300576040517f08c379a00000000000000000000000000000000000000000000000000000000081526004016102f79061146f565b60405180910390fd5b42816004015411610346576040517f08c379a000000000000000000000000000000000000000000000000000000000815260040161033d90611501565b60405180910390fd5b6103738160010160009054906101000a900473ffffffffffffffffffffffffffffffffffffffff16610f28565b156103b3576040517f08c379a00000000000000000000000000000000000000000000000000000000081526004016103aa90611593565b60405180910390fd5b600034036103f6576040517f08c379a00000000000000000000000000000000000000000000000000000000081526004016103ed906115ff565b60405180910390fd5b60008083604051610407919061140c565b908152602001604051809103902060003373ffffffffffffffffffffffffffffffffffffffff1673ffffffffffffffffffffffffffffffffffffffff1681526020019081526020016000205414610493576040517f08c379a000000000000000000000000000000000000000000000000000000000815260040161048a90611691565b60405180910390fd5b60008160020154036104ad57348160020181905550610507565b806002015434101561050657338160030160006101000a81548173ffffffffffffffffffffffffffffffffffffffff021916908373ffffffffffffffffffffffffffffffffffffffff1602179055503481600201819055505b5b34600083604051610518919061140c565b908152602001604051809103902060003373ffffffffffffffffffffffffffffffffffffffff1673ffffffffffffffffffffffffffffffffffffffff1681526020019081526020016000208190555080600601339080600181540180825580915050600190039060005260206000200160009091909190916101000a81548173ffffffffffffffffffffffffffffffffffffffff021916908373ffffffffffffffffffffffffffffffffffffffff160217905550816040516105da919061140c565b60405180910390207fb943b96dd9f93233b71814f112f45a2a4c26ddcfd840c8e755f0c9c23678d21733346040516106139291906116c0565b60405180910390a25050565b6000600183604051610631919061140c565b908152602001604051809103902090508060030160149054906101000a900460ff1615610693576040517f08c379a000000000000000000000000000000000000000000000000000000000815260040161068a90611735565b60405180910390fd5b6040518061010001604052808481526020013373ffffffffffffffffffffffffffffffffffffffff16815260200160008152602001600073ffffffffffffffffffffffffffffffffffffffff16815260200160011515815260200183426106fa9190611784565b8152602001600015158152602001600067ffffffffffffffff81111561072357610722611081565b5b6040519080825280602002602001820160405280156107515781602001602082028036833780820191505090505b50815250600184604051610765919061140c565b9081526020016040518091039020600082015181600001908161078891906119c4565b5060208201518160010160006101000a81548173ffffffffffffffffffffffffffffffffffffffff021916908373ffffffffffffffffffffffffffffffffffffffff1602179055506040820151816002015560608201518160030160006101000a81548173ffffffffffffffffffffffffffffffffffffffff021916908373ffffffffffffffffffffffffffffffffffffffff16021790555060808201518160030160146101000a81548160ff02191690831515021790555060a0820151816004015560c08201518160050160006101000a81548160ff02191690831515021790555060e0820151816006019080519060200190610887929190610fab565b50905050505050565b6000600260008373ffffffffffffffffffffffffffffffffffffffff1673ffffffffffffffffffffffffffffffffffffffff16815260200190815260200160002060006101000a81548160ff02191690831515021790555050565b60006001826040516108fd919061140c565b908152602001604051809103902060405180610100016040529081600082018054610927906117e7565b80601f0160208091040260200160405190810160405280929190818152602001828054610953906117e7565b80156109a05780601f10610975576101008083540402835291602001916109a0565b820191906000526020600020905b81548152906001019060200180831161098357829003601f168201915b505050505081526020016001820160009054906101000a900473ffffffffffffffffffffffffffffffffffffffff1673ffffffffffffffffffffffffffffffffffffffff1673ffffffffffffffffffffffffffffffffffffffff168152602001600282015481526020016003820160009054906101000a900473ffffffffffffffffffffffffffffffffffffffff1673ffffffffffffffffffffffffffffffffffffffff1673ffffffffffffffffffffffffffffffffffffffff1681526020016003820160149054906101000a900460ff16151515158152602001600482015481526020016005820160009054906101000a900460ff1615151515815260200160068201805480602002602001604051908101604052809291908181526020018280548015610b2457602002820191906000526020600020905b8160009054906101000a900473ffffffffffffffffffffffffffffffffffffffff1673ffffffffffffffffffffffffffffffffffffffff1681526020019060010190808311610ada575b5050505050815250509050428160a0015110610b75576040517f08c379a0000000000000000000000000000000000000000000000000000000008152600401610b6c90611ae2565b60405180910390fd5b610b828160200151610f28565b610bc1576040517f08c379a0000000000000000000000000000000000000000000000000000000008152600401610bb890611b74565b60405180910390fd5b6000816040015103610c08576040517f08c379a0000000000000000000000000000000000000000000000000000000008152600401610bff90611be0565b60405180910390fd5b6000816020015173ffffffffffffffffffffffffffffffffffffffff166108fc83604001519081150290604051600060405180830381858888f19350505050905080610c88576000826060019073ffffffffffffffffffffffffffffffffffffffff16908173ffffffffffffffffffffffffffffffffffffffff16815250505b60005b8260e0015151811015610d8f57826060015173ffffffffffffffffffffffffffffffffffffffff168360e001518281518110610cca57610cc9611c00565b5b602002602001015173ffffffffffffffffffffffffffffffffffffffff1614610d7c5760008360e001518281518110610d0657610d05611c00565b5b6020026020010151905060008086604051610d21919061140c565b908152602001604051809103902060008373ffffffffffffffffffffffffffffffffffffffff1673ffffffffffffffffffffffffffffffffffffffff168152602001908152602001600020549050610d798282610f60565b50505b8080610d8790611c2f565b915050610c8b565b50505050565b6000600182604051610da7919061140c565b908152602001604051809103902090508060030160149054906101000a900460ff16610e08576040517f08c379a0000000000000000000000000000000000000000000000000000000008152600401610dff90611cc3565b60405180910390fd5b600260003373ffffffffffffffffffffffffffffffffffffffff1673ffffffffffffffffffffffffffffffffffffffff16815260200190815260200160002060009054906101000a900460ff16610e94576040517f08c379a0000000000000000000000000000000000000000000000000000000008152600401610e8b90611d55565b60405180910390fd5b600382604051610ea4919061140c565b90815260200160405180910390206000815480929190610ec390611c2f565b91905055506002600383604051610eda919061140c565b90815260200160405180910390205410610f245760018160050160006101000a81548160ff021916908315150217905550806004015442610f1b9190611784565b81600401819055505b5050565b60003373ffffffffffffffffffffffffffffffffffffffff168273ffffffffffffffffffffffffffffffffffffffff16149050919050565b8173ffffffffffffffffffffffffffffffffffffffff166108fc829081150290604051600060405180830381858888f19350505050158015610fa6573d6000803e3d6000fd5b505050565b828054828255906000526020600020908101928215611024579160200282015b828111156110235782518260006101000a81548173ffffffffffffffffffffffffffffffffffffffff021916908373ffffffffffffffffffffffffffffffffffffffff16021790555091602001919060010190610fcb565b5b5090506110319190611035565b5090565b5b8082111561104e576000816000905550600101611036565b5090565b6000604051905090565b600080fd5b600080fd5b600080fd5b600080fd5b6000601f19601f8301169050919050565b7f4e487b7100000000000000000000000000000000000000000000000000000000600052604160045260246000fd5b6110b982611070565b810181811067ffffffffffffffff821117156110d8576110d7611081565b5b80604052505050565b60006110eb611052565b90506110f782826110b0565b919050565b600067ffffffffffffffff82111561111757611116611081565b5b61112082611070565b9050602081019050919050565b82818337600083830152505050565b600061114f61114a846110fc565b6110e1565b90508281526020810184848401111561116b5761116a61106b565b5b61117684828561112d565b509392505050565b600082601f83011261119357611192611066565b5b81356111a384826020860161113c565b91505092915050565b6000602082840312156111c2576111c161105c565b5b600082013567ffffffffffffffff8111156111e0576111df611061565b5b6111ec8482850161117e565b91505092915050565b600073ffffffffffffffffffffffffffffffffffffffff82169050919050565b6000611220826111f5565b9050919050565b61123081611215565b811461123b57600080fd5b50565b60008135905061124d81611227565b92915050565b6000602082840312156112695761126861105c565b5b60006112778482850161123e565b91505092915050565b6000819050919050565b61129381611280565b811461129e57600080fd5b50565b6000813590506112b08161128a565b92915050565b600080604083850312156112cd576112cc61105c565b5b600083013567ffffffffffffffff8111156112eb576112ea611061565b5b6112f78582860161117e565b9250506020611308858286016112a1565b9150509250929050565b61131b81611215565b82525050565b600081519050919050565b600082825260208201905092915050565b60005b8381101561135b578082015181840152602081019050611340565b60008484015250505050565b600061137282611321565b61137c818561132c565b935061138c81856020860161133d565b61139581611070565b840191505092915050565b60006040820190506113b56000830185611312565b81810360208301526113c78184611367565b90509392505050565b600081905092915050565b60006113e682611321565b6113f081856113d0565b935061140081856020860161133d565b80840191505092915050565b600061141882846113db565b915081905092915050565b7f50726f6a65637420446f65736e27742065786973740000000000000000000000600082015250565b600061145960158361132c565b915061146482611423565b602082019050919050565b600060208201905081810360008301526114888161144c565b9050919050565b7f42696464696e6720697320656e64656420666f7220746869732070726f6a656360008201527f7400000000000000000000000000000000000000000000000000000000000000602082015250565b60006114eb60218361132c565b91506114f68261148f565b604082019050919050565b6000602082019050818103600083015261151a816114de565b9050919050565b7f50726f6a65637420497373756572206973206e6f7420616c6c6f77656420746f60008201527f2062696400000000000000000000000000000000000000000000000000000000602082015250565b600061157d60248361132c565b915061158882611521565b604082019050919050565b600060208201905081810360008301526115ac81611570565b9050919050565b7f5a65726f20616d6f756e74206973206e6f7420616c6c6f7765642e0000000000600082015250565b60006115e9601b8361132c565b91506115f4826115b3565b602082019050919050565b60006020820190508181036000830152611618816115dc565b9050919050565b7f596f75206861766520616c72656164792062696464656420666f72207468697360008201527f2070726f6a656374000000000000000000000000000000000000000000000000602082015250565b600061167b60288361132c565b91506116868261161f565b604082019050919050565b600060208201905081810360008301526116aa8161166e565b9050919050565b6116ba81611280565b82525050565b60006040820190506116d56000830185611312565b6116e260208301846116b1565b9392505050565b7f50726f6a65637420616c72656164792065786973740000000000000000000000600082015250565b600061171f60158361132c565b915061172a826116e9565b602082019050919050565b6000602082019050818103600083015261174e81611712565b9050919050565b7f4e487b7100000000000000000000000000000000000000000000000000000000600052601160045260246000fd5b600061178f82611280565b915061179a83611280565b92508282019050808211156117b2576117b1611755565b5b92915050565b7f4e487b7100000000000000000000000000000000000000000000000000000000600052602260045260246000fd5b600060028204905060018216806117ff57607f821691505b602082108103611812576118116117b8565b5b50919050565b60008190508160005260206000209050919050565b60006020601f8301049050919050565b600082821b905092915050565b60006008830261187a7fffffffffffffffffffffffffffffffffffffffffffffffffffffffffffffffff8261183d565b611884868361183d565b95508019841693508086168417925050509392505050565b6000819050919050565b60006118c16118bc6118b784611280565b61189c565b611280565b9050919050565b6000819050919050565b6118db836118a6565b6118ef6118e7826118c8565b84845461184a565b825550505050565b600090565b6119046118f7565b61190f8184846118d2565b505050565b5b81811015611933576119286000826118fc565b600181019050611915565b5050565b601f8211156119785761194981611818565b6119528461182d565b81016020851015611961578190505b61197561196d8561182d565b830182611914565b50505b505050565b600082821c905092915050565b600061199b6000198460080261197d565b1980831691505092915050565b60006119b4838361198a565b9150826002028217905092915050565b6119cd82611321565b67ffffffffffffffff8111156119e6576119e5611081565b5b6119f082546117e7565b6119fb828285611937565b600060209050601f831160018114611a2e5760008415611a1c578287015190505b611a2685826119a8565b865550611a8e565b601f198416611a3c86611818565b60005b82811015611a6457848901518255600182019150602085019450602081019050611a3f565b86831015611a815784890151611a7d601f89168261198a565b8355505b6001600288020188555050505b505050505050565b7f42696464696e67206973207374696c6c20676f696e67206f6e00000000000000600082015250565b6000611acc60198361132c565b9150611ad782611a96565b602082019050919050565b60006020820190508181036000830152611afb81611abf565b9050919050565b7f4f6e6c7920746865206f776e65722063616e20656e642074686520617563746960008201527f6f6e2e0000000000000000000000000000000000000000000000000000000000602082015250565b6000611b5e60238361132c565b9150611b6982611b02565b604082019050919050565b60006020820190508181036000830152611b8d81611b51565b9050919050565b7f5468657265206973206e6f2062696420617420746865206d6f6d656e742e0000600082015250565b6000611bca601e8361132c565b9150611bd582611b94565b602082019050919050565b60006020820190508181036000830152611bf981611bbd565b9050919050565b7f4e487b7100000000000000000000000000000000000000000000000000000000600052603260045260246000fd5b6000611c3a82611280565b91507fffffffffffffffffffffffffffffffffffffffffffffffffffffffffffffffff8203611c6c57611c6b611755565b5b600182019050919050565b7f50726f6a65637420646f65736e27742065786973740000000000000000000000600082015250565b6000611cad60158361132c565b9150611cb882611c77565b602082019050919050565b60006020820190508181036000830152611cdc81611ca0565b9050919050565b7f596f752068617665206e6f207065726d697373696f6e20746f2076616c69646160008201527f74652070726f6a65637400000000000000000000000000000000000000000000602082015250565b6000611d3f602a8361132c565b9150611d4a82611ce3565b604082019050919050565b60006020820190508181036000830152611d6e81611d32565b905091905056fea264697066735822122044b942073bfcd739d0e18d5496392a970131e05666fb93e6d5fd4e7790fc20a664736f6c63430008120033",
  "immutableReferences": {},
  "source": "// SPDX-License-Identifier: MIT\r\n\r\npragma solidity ^0.8.0;\r\n\r\ncontract Bidding {\r\n\r\n    struct Project{\r\n        string projectId;\r\n        address payable owner;\r\n        uint highestBid;\r\n        address payable highestBidder;\r\n        bool exists;\r\n        uint endTime;\r\n        bool validated;\r\n        address[] bidAdd;\r\n    }\r\n\r\n\r\n    event BidderLoges(string indexed project_id,address bidder, uint amount);\r\n    event createParties(address party, string name);\r\n    event deletedParties(address party, string name);\r\n\r\n    mapping(string=>mapping(address=>uint)) bids;\r\n    mapping(string => Project) projects;\r\n    mapping(address => bool) permission;\r\n    mapping(string => uint) count_validator;\r\n\r\n    function createParty(string memory name) public{\r\n        emit createParties(msg.sender,name);\r\n    }\r\n\r\n    function deleteParty(string memory name) public{\r\n        emit deletedParties(msg.sender,name);\r\n    }\r\n\r\n    function providePermission(address addr) public{\r\n        permission[addr] = true;\r\n    }\r\n\r\n    function revokePermission(address addr) public{\r\n        permission[addr] = false;\r\n    }\r\n\r\n    function validateProject(string memory project_id) public{\r\n        Project storage temp = projects[project_id];\r\n        require(temp.exists,\"Project doesn't exist\");\r\n        require(permission[msg.sender],\"You have no permission to validate project\");\r\n        count_validator[project_id]++;\r\n        if(count_validator[project_id]>=2){\r\n            temp.validated = true;\r\n            temp.endTime = block.timestamp+temp.endTime;\r\n        } \r\n    }\r\n\r\n    function createProject(string memory project_id , uint _seconds)public {\r\n        Project storage temp = projects[project_id];\r\n        require(!temp.exists,\"Project already exist\");\r\n\r\n        projects[project_id] = Project(\r\n            project_id,\r\n            payable(msg.sender),\r\n            0,\r\n            payable(address(0)),\r\n            true,\r\n            block.timestamp+_seconds,\r\n            false,\r\n            new address[](0)\r\n        );\r\n    }\r\n\r\n    \r\n\r\n    function bid(string memory project_id) public payable {\r\n\r\n        Project storage temp = projects[project_id];\r\n\r\n        require(temp.exists,\"Project Doesn't exist\");\r\n        // require(temp.validated,\"Project is not validated yet\");\r\n        require(temp.endTime>block.timestamp, \"Bidding is ended for this project\");\r\n        require(!IsOwner(temp.owner), \"Project Issuer is not allowed to bid\");\r\n        require(msg.value!=0, \"Zero amount is not allowed.\");\r\n        require(bids[project_id][msg.sender]==0,\"You have already bidded for this project\");\r\n      \r\n        if(temp.highestBid == 0){\r\n            temp.highestBid = msg.value;\r\n        }\r\n        else{\r\n            if(msg.value<temp.highestBid){\r\n                temp.highestBidder = payable(msg.sender);\r\n                temp.highestBid = msg.value;\r\n            }\r\n        }\r\n\r\n        bids[project_id][msg.sender] = msg.value;\r\n        temp.bidAdd.push(msg.sender);\r\n\r\n        emit BidderLoges(project_id , msg.sender , msg.value);\r\n    }\r\n\r\n    function IsOwner(address owner_) private view returns (bool){\r\n        return owner_ == msg.sender;\r\n    }\r\n\r\n    function withdraw(address payable bidder_address,uint amount) private {\r\n    \r\n        bidder_address.transfer(amount);\r\n        // bidder_address.send(amount);\r\n    }\r\n\r\n    function endAuction(string memory project_id) public {\r\n\r\n        Project memory temp = projects[project_id];\r\n        // require(temp.validated,\"Project is not validated yet\");\r\n        require(temp.endTime<block.timestamp, \"Bidding is still going on\");\r\n        require(IsOwner(temp.owner), \"Only the owner can end the auction.\");\r\n        require(temp.highestBid != 0, \"There is no bid at the moment.\");\r\n\r\n        bool success = temp.owner.send(temp.highestBid);\r\n\r\n        if (!success) {\r\n            temp.highestBidder = payable(address(0));\r\n        }\r\n\r\n\r\n        for( uint256 i = 0 ; i < temp.bidAdd.length ; i++){\r\n            if(temp.bidAdd[i]!=temp.highestBidder){\r\n                address addr = temp.bidAdd[i];\r\n                uint amount = bids[project_id][addr];\r\n                withdraw(payable(addr),amount);\r\n            }\r\n        }\r\n    }\r\n}\r\n",
  "sourcePath": "E:\\Mtech CSE IITK\\Sem 2\\Blockchain\\Project\\Online-Contracting-System\\client\\src\\contracts\\Bidding.sol",
  "compiler": {
    "name": "solc",
    "version": "0.8.18+commit.87f61d96.Emscripten.clang"
  },
  "schemaVersion": "3.4.11",
  "updatedAt": "2023-04-15T10:58:57.526Z",
  "networkType": "ethereum",
  "devdoc": {
    "kind": "dev",
    "methods": {},
    "version": 1
  },
  "userdoc": {
    "kind": "user",
    "methods": {},
    "version": 1
  }
}