{
  "contractName": "Bidding",
  "abi": [
    {
      "anonymous": false,
      "inputs": [
        {
          "indexed": true,
          "internalType": "string",
          "name": "project_id",
          "type": "string"
        },
        {
          "indexed": false,
          "internalType": "address",
          "name": "bidder",
          "type": "address"
        },
        {
          "indexed": false,
          "internalType": "uint256",
          "name": "amount",
          "type": "uint256"
        }
      ],
      "name": "BidderLoges",
      "type": "event"
    },
    {
      "anonymous": false,
      "inputs": [
        {
          "indexed": false,
          "internalType": "address",
          "name": "party",
          "type": "address"
        },
        {
          "indexed": false,
          "internalType": "string",
          "name": "name",
          "type": "string"
        }
      ],
      "name": "createParties",
      "type": "event"
    },
    {
      "anonymous": false,
      "inputs": [
        {
          "indexed": false,
          "internalType": "address",
          "name": "",
          "type": "address"
        },
        {
          "indexed": false,
          "internalType": "string",
          "name": "",
          "type": "string"
        }
      ],
      "name": "createProjects",
      "type": "event"
    },
    {
      "anonymous": false,
      "inputs": [
        {
          "indexed": false,
          "internalType": "address",
          "name": "party",
          "type": "address"
        },
        {
          "indexed": false,
          "internalType": "string",
          "name": "name",
          "type": "string"
        }
      ],
      "name": "deletedParties",
      "type": "event"
    },
    {
      "inputs": [
        {
          "internalType": "string",
          "name": "name",
          "type": "string"
        }
      ],
      "name": "createParty",
      "outputs": [],
      "stateMutability": "nonpayable",
      "type": "function"
    },
    {
      "inputs": [
        {
          "internalType": "string",
          "name": "name",
          "type": "string"
        }
      ],
      "name": "deleteParty",
      "outputs": [],
      "stateMutability": "nonpayable",
      "type": "function"
    },
    {
      "inputs": [
        {
          "internalType": "address",
          "name": "addr",
          "type": "address"
        }
      ],
      "name": "providePermission",
      "outputs": [],
      "stateMutability": "nonpayable",
      "type": "function"
    },
    {
      "inputs": [
        {
          "internalType": "address",
          "name": "addr",
          "type": "address"
        }
      ],
      "name": "revokePermission",
      "outputs": [],
      "stateMutability": "nonpayable",
      "type": "function"
    },
    {
      "inputs": [
        {
          "internalType": "string",
          "name": "project_id",
          "type": "string"
        }
      ],
      "name": "validateProject",
      "outputs": [],
      "stateMutability": "nonpayable",
      "type": "function"
    },
    {
      "inputs": [
        {
          "internalType": "string",
          "name": "project_id",
          "type": "string"
        },
        {
          "internalType": "uint256",
          "name": "_seconds",
          "type": "uint256"
        }
      ],
      "name": "createProject",
      "outputs": [],
      "stateMutability": "nonpayable",
      "type": "function"
    },
    {
      "inputs": [
        {
          "internalType": "string",
          "name": "project_id",
          "type": "string"
        },
        {
          "internalType": "uint256",
          "name": "amount",
          "type": "uint256"
        }
      ],
      "name": "bid",
      "outputs": [],
      "stateMutability": "nonpayable",
      "type": "function"
    },
    {
      "inputs": [
        {
          "internalType": "string",
          "name": "project_id",
          "type": "string"
        }
      ],
      "name": "getLowestBid",
      "outputs": [
        {
          "internalType": "uint256",
          "name": "",
          "type": "uint256"
        }
      ],
      "stateMutability": "view",
      "type": "function",
      "constant": true
    },
    {
      "inputs": [
        {
          "internalType": "string",
          "name": "project_id",
          "type": "string"
        }
      ],
      "name": "getLowestBidder",
      "outputs": [
        {
          "internalType": "address",
          "name": "",
          "type": "address"
        }
      ],
      "stateMutability": "view",
      "type": "function",
      "constant": true
    },
    {
      "inputs": [
        {
          "internalType": "string",
          "name": "project_id",
          "type": "string"
        }
      ],
      "name": "endAuction",
      "outputs": [],
      "stateMutability": "payable",
      "type": "function",
      "payable": true
    }
  ],
  "bytecode": "0x608060405234801561001057600080fd5b506123d0806100206000396000f3fe6080604052600436106100905760003560e01c806391754a5d1161005957806391754a5d14610176578063a3bf5b9a1461019f578063ce2ba9bf146101c8578063d0ecd582146101e4578063e4d1464e1461020d57610090565b80624094db1461009557806310496a97146100be578063315ec0b3146100fb57806342dce1ac146101245780635f4833131461014d575b600080fd5b3480156100a157600080fd5b506100bc60048036038101906100b791906117ca565b61024a565b005b3480156100ca57600080fd5b506100e560048036038101906100e091906117ca565b610286565b6040516100f2919061182c565b60405180910390f35b34801561010757600080fd5b50610122600480360381019061011d91906117ca565b6105b1565b005b34801561013057600080fd5b5061014b600480360381019061014691906118a5565b6105ed565b005b34801561015957600080fd5b50610174600480360381019061016f91906118fe565b610648565b005b34801561018257600080fd5b5061019d600480360381019061019891906118fe565b610a1e565b005b3480156101ab57600080fd5b506101c660048036038101906101c191906118a5565b610cc8565b005b6101e260048036038101906101dd91906117ca565b610d23565b005b3480156101f057600080fd5b5061020b600480360381019061020691906117ca565b6110d3565b005b34801561021957600080fd5b50610234600480360381019061022f91906117ca565b611266565b6040516102419190611969565b60405180910390f35b7f0eeb22054a2bf61263a13d14ff78b234c3925188ec8d4d5db18fb196570a5f57338260405161027b929190611a03565b60405180910390a150565b6000806001836040516102999190611a6f565b9081526020016040518091039020604051806101000160405290816000820180546102c390611ab5565b80601f01602080910402602001604051908101604052809291908181526020018280546102ef90611ab5565b801561033c5780601f106103115761010080835404028352916020019161033c565b820191906000526020600020905b81548152906001019060200180831161031f57829003601f168201915b505050505081526020016001820160009054906101000a900473ffffffffffffffffffffffffffffffffffffffff1673ffffffffffffffffffffffffffffffffffffffff1673ffffffffffffffffffffffffffffffffffffffff168152602001600282015481526020016003820160009054906101000a900473ffffffffffffffffffffffffffffffffffffffff1673ffffffffffffffffffffffffffffffffffffffff1673ffffffffffffffffffffffffffffffffffffffff1681526020016003820160149054906101000a900460ff16151515158152602001600482015481526020016005820160009054906101000a900460ff16151515158152602001600682018054806020026020016040519081016040528092919081815260200182805480156104c057602002820191906000526020600020905b8160009054906101000a900473ffffffffffffffffffffffffffffffffffffffff1673ffffffffffffffffffffffffffffffffffffffff1681526020019060010190808311610476575b5050505050815250509050428160a0015110610511576040517f08c379a000000000000000000000000000000000000000000000000000000000815260040161050890611b32565b60405180910390fd5b61051e8160200151611591565b61055d576040517f08c379a000000000000000000000000000000000000000000000000000000000815260040161055490611bc4565b60405180910390fd5b60008160400151036105a4576040517f08c379a000000000000000000000000000000000000000000000000000000000815260040161059b90611c30565b60405180910390fd5b8060400151915050919050565b7f7db547ffcbc3e5a4f2ca2ebc7efc8db4da97e82fc20ccbc97b29c65c0d273ca233826040516105e2929190611a03565b60405180910390a150565b6001600260008373ffffffffffffffffffffffffffffffffffffffff1673ffffffffffffffffffffffffffffffffffffffff16815260200190815260200160002060006101000a81548160ff02191690831515021790555050565b600060018360405161065a9190611a6f565b908152602001604051809103902090508060030160149054906101000a900460ff166106bb576040517f08c379a00000000000000000000000000000000000000000000000000000000081526004016106b290611c9c565b60405180910390fd5b42816004015411610701576040517f08c379a00000000000000000000000000000000000000000000000000000000081526004016106f890611d2e565b60405180910390fd5b61072e8160010160009054906101000a900473ffffffffffffffffffffffffffffffffffffffff16611591565b1561076e576040517f08c379a000000000000000000000000000000000000000000000000000000000815260040161076590611dc0565b60405180910390fd5b600082036107b1576040517f08c379a00000000000000000000000000000000000000000000000000000000081526004016107a890611e2c565b60405180910390fd5b600080846040516107c29190611a6f565b908152602001604051809103902060003373ffffffffffffffffffffffffffffffffffffffff1673ffffffffffffffffffffffffffffffffffffffff168152602001908152602001600020541461084e576040517f08c379a000000000000000000000000000000000000000000000000000000000815260040161084590611ebe565b60405180910390fd5b60008160020154036108ab57818160020181905550338160030160006101000a81548173ffffffffffffffffffffffffffffffffffffffff021916908373ffffffffffffffffffffffffffffffffffffffff160217905550610905565b806002015482101561090457338160030160006101000a81548173ffffffffffffffffffffffffffffffffffffffff021916908373ffffffffffffffffffffffffffffffffffffffff1602179055508181600201819055505b5b816000846040516109169190611a6f565b908152602001604051809103902060003373ffffffffffffffffffffffffffffffffffffffff1673ffffffffffffffffffffffffffffffffffffffff1681526020019081526020016000208190555080600601339080600181540180825580915050600190039060005260206000200160009091909190916101000a81548173ffffffffffffffffffffffffffffffffffffffff021916908373ffffffffffffffffffffffffffffffffffffffff160217905550826040516109d89190611a6f565b60405180910390207fb943b96dd9f93233b71814f112f45a2a4c26ddcfd840c8e755f0c9c23678d2173384604051610a11929190611ede565b60405180910390a2505050565b6000600183604051610a309190611a6f565b908152602001604051809103902090508060030160149054906101000a900460ff1615610a92576040517f08c379a0000000000000000000000000000000000000000000000000000000008152600401610a8990611f53565b60405180910390fd5b6040518061010001604052808481526020013373ffffffffffffffffffffffffffffffffffffffff16815260200160008152602001600073ffffffffffffffffffffffffffffffffffffffff1681526020016001151581526020018342610af99190611fa2565b8152602001600015158152602001600067ffffffffffffffff811115610b2257610b2161169f565b5b604051908082528060200260200182016040528015610b505781602001602082028036833780820191505090505b50815250600184604051610b649190611a6f565b90815260200160405180910390206000820151816000019081610b879190612182565b5060208201518160010160006101000a81548173ffffffffffffffffffffffffffffffffffffffff021916908373ffffffffffffffffffffffffffffffffffffffff1602179055506040820151816002015560608201518160030160006101000a81548173ffffffffffffffffffffffffffffffffffffffff021916908373ffffffffffffffffffffffffffffffffffffffff16021790555060808201518160030160146101000a81548160ff02191690831515021790555060a0820151816004015560c08201518160050160006101000a81548160ff02191690831515021790555060e0820151816006019080519060200190610c869291906115c9565b509050507ff7cd01f28abd715e3d83c937fa40d3ca5eb27c88226fc480e07951653a11f5a83384604051610cbb929190611a03565b60405180910390a1505050565b6000600260008373ffffffffffffffffffffffffffffffffffffffff1673ffffffffffffffffffffffffffffffffffffffff16815260200190815260200160002060006101000a81548160ff02191690831515021790555050565b6000600182604051610d359190611a6f565b908152602001604051809103902060405180610100016040529081600082018054610d5f90611ab5565b80601f0160208091040260200160405190810160405280929190818152602001828054610d8b90611ab5565b8015610dd85780601f10610dad57610100808354040283529160200191610dd8565b820191906000526020600020905b815481529060010190602001808311610dbb57829003601f168201915b505050505081526020016001820160009054906101000a900473ffffffffffffffffffffffffffffffffffffffff1673ffffffffffffffffffffffffffffffffffffffff1673ffffffffffffffffffffffffffffffffffffffff168152602001600282015481526020016003820160009054906101000a900473ffffffffffffffffffffffffffffffffffffffff1673ffffffffffffffffffffffffffffffffffffffff1673ffffffffffffffffffffffffffffffffffffffff1681526020016003820160149054906101000a900460ff16151515158152602001600482015481526020016005820160009054906101000a900460ff1615151515815260200160068201805480602002602001604051908101604052809291908181526020018280548015610f5c57602002820191906000526020600020905b8160009054906101000a900473ffffffffffffffffffffffffffffffffffffffff1673ffffffffffffffffffffffffffffffffffffffff1681526020019060010190808311610f12575b50505050508152505090508060800151610fab576040517f08c379a0000000000000000000000000000000000000000000000000000000008152600401610fa290611c9c565b60405180910390fd5b428160a0015110610ff1576040517f08c379a0000000000000000000000000000000000000000000000000000000008152600401610fe890611b32565b60405180910390fd5b610ffe8160200151611591565b61103d576040517f08c379a000000000000000000000000000000000000000000000000000000000815260040161103490611bc4565b60405180910390fd5b6000816040015103611084576040517f08c379a000000000000000000000000000000000000000000000000000000000815260040161107b90611c30565b60405180910390fd5b806060015173ffffffffffffffffffffffffffffffffffffffff166108fc349081150290604051600060405180830381858888f193505050501580156110ce573d6000803e3d6000fd5b505050565b60006001826040516110e59190611a6f565b908152602001604051809103902090508060030160149054906101000a900460ff16611146576040517f08c379a000000000000000000000000000000000000000000000000000000000815260040161113d906122a0565b60405180910390fd5b600260003373ffffffffffffffffffffffffffffffffffffffff1673ffffffffffffffffffffffffffffffffffffffff16815260200190815260200160002060009054906101000a900460ff166111d2576040517f08c379a00000000000000000000000000000000000000000000000000000000081526004016111c990612332565b60405180910390fd5b6003826040516111e29190611a6f565b9081526020016040518091039020600081548092919061120190612352565b919050555060026003836040516112189190611a6f565b908152602001604051809103902054106112625760018160050160006101000a81548160ff0219169083151502179055508060040154426112599190611fa2565b81600401819055505b5050565b6000806001836040516112799190611a6f565b9081526020016040518091039020604051806101000160405290816000820180546112a390611ab5565b80601f01602080910402602001604051908101604052809291908181526020018280546112cf90611ab5565b801561131c5780601f106112f15761010080835404028352916020019161131c565b820191906000526020600020905b8154815290600101906020018083116112ff57829003601f168201915b505050505081526020016001820160009054906101000a900473ffffffffffffffffffffffffffffffffffffffff1673ffffffffffffffffffffffffffffffffffffffff1673ffffffffffffffffffffffffffffffffffffffff168152602001600282015481526020016003820160009054906101000a900473ffffffffffffffffffffffffffffffffffffffff1673ffffffffffffffffffffffffffffffffffffffff1673ffffffffffffffffffffffffffffffffffffffff1681526020016003820160149054906101000a900460ff16151515158152602001600482015481526020016005820160009054906101000a900460ff16151515158152602001600682018054806020026020016040519081016040528092919081815260200182805480156114a057602002820191906000526020600020905b8160009054906101000a900473ffffffffffffffffffffffffffffffffffffffff1673ffffffffffffffffffffffffffffffffffffffff1681526020019060010190808311611456575b5050505050815250509050428160a00151106114f1576040517f08c379a00000000000000000000000000000000000000000000000000000000081526004016114e890611b32565b60405180910390fd5b6114fe8160200151611591565b61153d576040517f08c379a000000000000000000000000000000000000000000000000000000000815260040161153490611bc4565b60405180910390fd5b6000816040015103611584576040517f08c379a000000000000000000000000000000000000000000000000000000000815260040161157b90611c30565b60405180910390fd5b8060600151915050919050565b60003373ffffffffffffffffffffffffffffffffffffffff168273ffffffffffffffffffffffffffffffffffffffff16149050919050565b828054828255906000526020600020908101928215611642579160200282015b828111156116415782518260006101000a81548173ffffffffffffffffffffffffffffffffffffffff021916908373ffffffffffffffffffffffffffffffffffffffff160217905550916020019190600101906115e9565b5b50905061164f9190611653565b5090565b5b8082111561166c576000816000905550600101611654565b5090565b6000604051905090565b600080fd5b600080fd5b600080fd5b600080fd5b6000601f19601f8301169050919050565b7f4e487b7100000000000000000000000000000000000000000000000000000000600052604160045260246000fd5b6116d78261168e565b810181811067ffffffffffffffff821117156116f6576116f561169f565b5b80604052505050565b6000611709611670565b905061171582826116ce565b919050565b600067ffffffffffffffff8211156117355761173461169f565b5b61173e8261168e565b9050602081019050919050565b82818337600083830152505050565b600061176d6117688461171a565b6116ff565b90508281526020810184848401111561178957611788611689565b5b61179484828561174b565b509392505050565b600082601f8301126117b1576117b0611684565b5b81356117c184826020860161175a565b91505092915050565b6000602082840312156117e0576117df61167a565b5b600082013567ffffffffffffffff8111156117fe576117fd61167f565b5b61180a8482850161179c565b91505092915050565b6000819050919050565b61182681611813565b82525050565b6000602082019050611841600083018461181d565b92915050565b600073ffffffffffffffffffffffffffffffffffffffff82169050919050565b600061187282611847565b9050919050565b61188281611867565b811461188d57600080fd5b50565b60008135905061189f81611879565b92915050565b6000602082840312156118bb576118ba61167a565b5b60006118c984828501611890565b91505092915050565b6118db81611813565b81146118e657600080fd5b50565b6000813590506118f8816118d2565b92915050565b600080604083850312156119155761191461167a565b5b600083013567ffffffffffffffff8111156119335761193261167f565b5b61193f8582860161179c565b9250506020611950858286016118e9565b9150509250929050565b61196381611867565b82525050565b600060208201905061197e600083018461195a565b92915050565b600081519050919050565b600082825260208201905092915050565b60005b838110156119be5780820151818401526020810190506119a3565b60008484015250505050565b60006119d582611984565b6119df818561198f565b93506119ef8185602086016119a0565b6119f88161168e565b840191505092915050565b6000604082019050611a18600083018561195a565b8181036020830152611a2a81846119ca565b90509392505050565b600081905092915050565b6000611a4982611984565b611a538185611a33565b9350611a638185602086016119a0565b80840191505092915050565b6000611a7b8284611a3e565b915081905092915050565b7f4e487b7100000000000000000000000000000000000000000000000000000000600052602260045260246000fd5b60006002820490506001821680611acd57607f821691505b602082108103611ae057611adf611a86565b5b50919050565b7f42696464696e67206973207374696c6c20676f696e67206f6e00000000000000600082015250565b6000611b1c60198361198f565b9150611b2782611ae6565b602082019050919050565b60006020820190508181036000830152611b4b81611b0f565b9050919050565b7f4f6e6c7920746865206f776e65722063616e20656e642074686520617563746960008201527f6f6e2e0000000000000000000000000000000000000000000000000000000000602082015250565b6000611bae60238361198f565b9150611bb982611b52565b604082019050919050565b60006020820190508181036000830152611bdd81611ba1565b9050919050565b7f5468657265206973206e6f2062696420617420746865206d6f6d656e742e0000600082015250565b6000611c1a601e8361198f565b9150611c2582611be4565b602082019050919050565b60006020820190508181036000830152611c4981611c0d565b9050919050565b7f50726f6a65637420446f65736e27742065786973740000000000000000000000600082015250565b6000611c8660158361198f565b9150611c9182611c50565b602082019050919050565b60006020820190508181036000830152611cb581611c79565b9050919050565b7f42696464696e6720697320656e64656420666f7220746869732070726f6a656360008201527f7400000000000000000000000000000000000000000000000000000000000000602082015250565b6000611d1860218361198f565b9150611d2382611cbc565b604082019050919050565b60006020820190508181036000830152611d4781611d0b565b9050919050565b7f50726f6a65637420497373756572206973206e6f7420616c6c6f77656420746f60008201527f2062696400000000000000000000000000000000000000000000000000000000602082015250565b6000611daa60248361198f565b9150611db582611d4e565b604082019050919050565b60006020820190508181036000830152611dd981611d9d565b9050919050565b7f5a65726f20616d6f756e74206973206e6f7420616c6c6f7765642e0000000000600082015250565b6000611e16601b8361198f565b9150611e2182611de0565b602082019050919050565b60006020820190508181036000830152611e4581611e09565b9050919050565b7f596f75206861766520616c72656164792062696464656420666f72207468697360008201527f2070726f6a656374000000000000000000000000000000000000000000000000602082015250565b6000611ea860288361198f565b9150611eb382611e4c565b604082019050919050565b60006020820190508181036000830152611ed781611e9b565b9050919050565b6000604082019050611ef3600083018561195a565b611f00602083018461181d565b9392505050565b7f50726f6a65637420616c72656164792065786973740000000000000000000000600082015250565b6000611f3d60158361198f565b9150611f4882611f07565b602082019050919050565b60006020820190508181036000830152611f6c81611f30565b9050919050565b7f4e487b7100000000000000000000000000000000000000000000000000000000600052601160045260246000fd5b6000611fad82611813565b9150611fb883611813565b9250828201905080821115611fd057611fcf611f73565b5b92915050565b60008190508160005260206000209050919050565b60006020601f8301049050919050565b600082821b905092915050565b6000600883026120387fffffffffffffffffffffffffffffffffffffffffffffffffffffffffffffffff82611ffb565b6120428683611ffb565b95508019841693508086168417925050509392505050565b6000819050919050565b600061207f61207a61207584611813565b61205a565b611813565b9050919050565b6000819050919050565b61209983612064565b6120ad6120a582612086565b848454612008565b825550505050565b600090565b6120c26120b5565b6120cd818484612090565b505050565b5b818110156120f1576120e66000826120ba565b6001810190506120d3565b5050565b601f8211156121365761210781611fd6565b61211084611feb565b8101602085101561211f578190505b61213361212b85611feb565b8301826120d2565b50505b505050565b600082821c905092915050565b60006121596000198460080261213b565b1980831691505092915050565b60006121728383612148565b9150826002028217905092915050565b61218b82611984565b67ffffffffffffffff8111156121a4576121a361169f565b5b6121ae8254611ab5565b6121b98282856120f5565b600060209050601f8311600181146121ec57600084156121da578287015190505b6121e48582612166565b86555061224c565b601f1984166121fa86611fd6565b60005b82811015612222578489015182556001820191506020850194506020810190506121fd565b8683101561223f578489015161223b601f891682612148565b8355505b6001600288020188555050505b505050505050565b7f50726f6a65637420646f65736e27742065786973740000000000000000000000600082015250565b600061228a60158361198f565b915061229582612254565b602082019050919050565b600060208201905081810360008301526122b98161227d565b9050919050565b7f596f752068617665206e6f207065726d697373696f6e20746f2076616c69646160008201527f74652070726f6a65637400000000000000000000000000000000000000000000602082015250565b600061231c602a8361198f565b9150612327826122c0565b604082019050919050565b6000602082019050818103600083015261234b8161230f565b9050919050565b600061235d82611813565b91507fffffffffffffffffffffffffffffffffffffffffffffffffffffffffffffffff820361238f5761238e611f73565b5b60018201905091905056fea2646970667358221220cd235b00daa7f70dec8fc030d1576a943ada888b8f67d0d34da1db4b6966a0a864736f6c63430008120033",
  "immutableReferences": {},
  "source": "// SPDX-License-Identifier: MIT\r\n\r\npragma solidity ^0.8.0;\r\n\r\ncontract Bidding {\r\n\r\n    struct Project{\r\n        string projectId;\r\n        address payable owner;\r\n        uint lowestBid;\r\n        address payable lowestBidder;\r\n        bool exists;\r\n        uint endTime;\r\n        bool validated;\r\n        address[] bidAdd;\r\n    }\r\n\r\n\r\n    event BidderLoges(string indexed project_id,address bidder, uint amount);\r\n    event createParties(address party, string name);\r\n    event deletedParties(address party, string name);\r\n    event createProjects(address,string);\r\n\r\n    mapping(string=>mapping(address=>uint)) bids;\r\n    mapping(string => Project) projects;\r\n    mapping(address => bool) permission;\r\n    mapping(string => uint) count_validator;\r\n\r\n    function createParty(string memory name) public{\r\n        emit createParties(msg.sender,name);\r\n    }\r\n\r\n    function deleteParty(string memory name) public{\r\n        emit deletedParties(msg.sender,name);\r\n    }\r\n\r\n    function providePermission(address addr) public{\r\n        permission[addr] = true;\r\n    }\r\n\r\n    function revokePermission(address addr) public{\r\n        permission[addr] = false;\r\n    }\r\n\r\n    function validateProject(string memory project_id) public{\r\n        Project storage temp = projects[project_id];\r\n        require(temp.exists,\"Project doesn't exist\");\r\n        require(permission[msg.sender],\"You have no permission to validate project\");\r\n        count_validator[project_id]++;\r\n        if(count_validator[project_id]>=2){\r\n            temp.validated = true;\r\n            temp.endTime = block.timestamp+temp.endTime;\r\n        } \r\n    }\r\n\r\n    function createProject(string memory project_id , uint _seconds)public {\r\n        Project storage temp = projects[project_id];\r\n        require(!temp.exists,\"Project already exist\");\r\n\r\n        projects[project_id] = Project(\r\n            project_id,\r\n            payable(msg.sender),\r\n            0,\r\n            payable(address(0)),\r\n            true,\r\n            block.timestamp+_seconds,\r\n            false,\r\n            new address[](0)\r\n        );\r\n        emit createProjects(msg.sender, project_id);\r\n    }\r\n\r\n    \r\n\r\n    function bid(string memory project_id,uint amount) public  {\r\n\r\n        Project storage temp = projects[project_id];\r\n\r\n        require(temp.exists,\"Project Doesn't exist\");\r\n        // require(temp.validated,\"Project is not validated yet\");\r\n        require(temp.endTime>block.timestamp, \"Bidding is ended for this project\");\r\n        require(!IsOwner(temp.owner), \"Project Issuer is not allowed to bid\");\r\n        require(amount!=0, \"Zero amount is not allowed.\");\r\n        require(bids[project_id][msg.sender]==0,\"You have already bidded for this project\");\r\n      \r\n        if(temp.lowestBid == 0){\r\n            temp.lowestBid = amount;\r\n            temp.lowestBidder = payable(msg.sender);\r\n        }\r\n        else{\r\n            if(amount<temp.lowestBid){\r\n                temp.lowestBidder = payable(msg.sender);\r\n                temp.lowestBid = amount;\r\n            }\r\n        }\r\n\r\n        bids[project_id][msg.sender] = amount;\r\n        temp.bidAdd.push(msg.sender);\r\n\r\n        emit BidderLoges(project_id , msg.sender , amount);\r\n    }\r\n\r\n    function IsOwner(address owner_) private view returns (bool){\r\n        return owner_ == msg.sender;\r\n    }\r\n\r\n    function withdraw(address payable bidder_address,uint amount) private {\r\n    \r\n        bidder_address.transfer(amount);\r\n        // bidder_address.send(amount);\r\n    }\r\n\r\n    function getLowestBid(string memory project_id) public view returns(uint){\r\n        Project memory temp = projects[project_id];\r\n        require(temp.endTime<block.timestamp, \"Bidding is still going on\");\r\n        require(IsOwner(temp.owner), \"Only the owner can end the auction.\");\r\n        require(temp.lowestBid != 0, \"There is no bid at the moment.\");\r\n        return temp.lowestBid;\r\n    }\r\n\r\n    function getLowestBidder(string memory project_id) public view returns(address){\r\n        Project memory temp = projects[project_id];\r\n        require(temp.endTime<block.timestamp, \"Bidding is still going on\");\r\n        require(IsOwner(temp.owner), \"Only the owner can end the auction.\");\r\n        require(temp.lowestBid != 0, \"There is no bid at the moment.\");\r\n        return temp.lowestBidder;\r\n    }\r\n\r\n    function endAuction(string memory project_id) public payable{\r\n\r\n        Project memory temp = projects[project_id];\r\n        // require(temp.validated,\"Project is not validated yet\");\r\n        require(temp.exists,\"Project Doesn't exist\");\r\n        require(temp.endTime<block.timestamp, \"Bidding is still going on\");\r\n        require(IsOwner(temp.owner), \"Only the owner can end the auction.\");\r\n        require(temp.lowestBid != 0, \"There is no bid at the moment.\");\r\n\r\n        // temp.owner.transfer(temp.highestBid);\r\n        temp.lowestBidder.transfer(msg.value);\r\n\r\n    \r\n    }\r\n}\r\n",
  "sourcePath": "E:\\Mtech CSE IITK\\Sem 2\\Blockchain\\Project\\Online-Contracting-System\\client\\src\\contracts\\Bidding.sol",
  "compiler": {
    "name": "solc",
    "version": "0.8.18+commit.87f61d96.Emscripten.clang"
  },
  "schemaVersion": "3.4.11",
  "updatedAt": "2023-04-15T16:53:36.744Z",
  "networkType": "ethereum",
  "devdoc": {
    "kind": "dev",
    "methods": {},
    "version": 1
  },
  "userdoc": {
    "kind": "user",
    "methods": {},
    "version": 1
  }
}