{
  "contractName": "Bidding",
  "abi": [
    {
      "anonymous": false,
      "inputs": [
        {
          "indexed": true,
          "internalType": "string",
          "name": "project_id",
          "type": "string"
        },
        {
          "indexed": false,
          "internalType": "address",
          "name": "bidder",
          "type": "address"
        },
        {
          "indexed": false,
          "internalType": "uint256",
          "name": "amount",
          "type": "uint256"
        }
      ],
      "name": "BidderLoges",
      "type": "event"
    },
    {
      "anonymous": false,
      "inputs": [
        {
          "indexed": false,
          "internalType": "address",
          "name": "party",
          "type": "address"
        },
        {
          "indexed": false,
          "internalType": "string",
          "name": "name",
          "type": "string"
        }
      ],
      "name": "createParties",
      "type": "event"
    },
    {
      "anonymous": false,
      "inputs": [
        {
          "indexed": false,
          "internalType": "address",
          "name": "party",
          "type": "address"
        },
        {
          "indexed": false,
          "internalType": "string",
          "name": "name",
          "type": "string"
        }
      ],
      "name": "deletedParties",
      "type": "event"
    },
    {
      "inputs": [
        {
          "internalType": "string",
          "name": "name",
          "type": "string"
        }
      ],
      "name": "createParty",
      "outputs": [],
      "stateMutability": "nonpayable",
      "type": "function"
    },
    {
      "inputs": [
        {
          "internalType": "string",
          "name": "name",
          "type": "string"
        }
      ],
      "name": "deleteParty",
      "outputs": [],
      "stateMutability": "nonpayable",
      "type": "function"
    },
    {
      "inputs": [
        {
          "internalType": "address",
          "name": "addr",
          "type": "address"
        }
      ],
      "name": "providePermission",
      "outputs": [],
      "stateMutability": "nonpayable",
      "type": "function"
    },
    {
      "inputs": [
        {
          "internalType": "address",
          "name": "addr",
          "type": "address"
        }
      ],
      "name": "revokePermission",
      "outputs": [],
      "stateMutability": "nonpayable",
      "type": "function"
    },
    {
      "inputs": [
        {
          "internalType": "string",
          "name": "project_id",
          "type": "string"
        }
      ],
      "name": "validateProject",
      "outputs": [],
      "stateMutability": "nonpayable",
      "type": "function"
    },
    {
      "inputs": [
        {
          "internalType": "string",
          "name": "project_id",
          "type": "string"
        },
        {
          "internalType": "uint256",
          "name": "_seconds",
          "type": "uint256"
        }
      ],
      "name": "createProject",
      "outputs": [],
      "stateMutability": "nonpayable",
      "type": "function"
    },
    {
      "inputs": [
        {
          "internalType": "string",
          "name": "project_id",
          "type": "string"
        }
      ],
      "name": "bid",
      "outputs": [],
      "stateMutability": "payable",
      "type": "function",
      "payable": true
    },
    {
      "inputs": [
        {
          "internalType": "string",
          "name": "project_id",
          "type": "string"
        }
      ],
      "name": "endAuction",
      "outputs": [],
      "stateMutability": "nonpayable",
      "type": "function"
    }
  ],
  "bytecode": "0x608060405234801561001057600080fd5b50611da0806100206000396000f3fe60806040526004361061007a5760003560e01c806391754a5d1161004e57806391754a5d14610116578063a3bf5b9a1461013f578063ce2ba9bf14610168578063d0ecd582146101915761007a565b80624094db1461007f578063315ec0b3146100a857806342dce1ac146100d15780637aef951c146100fa575b600080fd5b34801561008b57600080fd5b506100a660048036038101906100a191906111a1565b6101ba565b005b3480156100b457600080fd5b506100cf60048036038101906100ca91906111a1565b6101f6565b005b3480156100dd57600080fd5b506100f860048036038101906100f39190611248565b610232565b005b610114600480360381019061010f91906111a1565b61028d565b005b34801561012257600080fd5b5061013d600480360381019061013891906112ab565b61061f565b005b34801561014b57600080fd5b5061016660048036038101906101619190611248565b610885565b005b34801561017457600080fd5b5061018f600480360381019061018a91906111a1565b6108e0565b005b34801561019d57600080fd5b506101b860048036038101906101b391906111a1565b610d8a565b005b7f0eeb22054a2bf61263a13d14ff78b234c3925188ec8d4d5db18fb196570a5f5733826040516101eb929190611395565b60405180910390a150565b7f7db547ffcbc3e5a4f2ca2ebc7efc8db4da97e82fc20ccbc97b29c65c0d273ca23382604051610227929190611395565b60405180910390a150565b6001600260008373ffffffffffffffffffffffffffffffffffffffff1673ffffffffffffffffffffffffffffffffffffffff16815260200190815260200160002060006101000a81548160ff02191690831515021790555050565b600060018260405161029f9190611401565b908152602001604051809103902090508060030160149054906101000a900460ff16610300576040517f08c379a00000000000000000000000000000000000000000000000000000000081526004016102f790611464565b60405180910390fd5b42816004015411610346576040517f08c379a000000000000000000000000000000000000000000000000000000000815260040161033d906114f6565b60405180910390fd5b6103738160010160009054906101000a900473ffffffffffffffffffffffffffffffffffffffff16610f1d565b156103b3576040517f08c379a00000000000000000000000000000000000000000000000000000000081526004016103aa90611588565b60405180910390fd5b600034036103f6576040517f08c379a00000000000000000000000000000000000000000000000000000000081526004016103ed906115f4565b60405180910390fd5b600080836040516104079190611401565b908152602001604051809103902060003373ffffffffffffffffffffffffffffffffffffffff1673ffffffffffffffffffffffffffffffffffffffff1681526020019081526020016000205414610493576040517f08c379a000000000000000000000000000000000000000000000000000000000815260040161048a90611686565b60405180910390fd5b60008160020154036104ad57348160020181905550610507565b806002015434101561050657338160030160006101000a81548173ffffffffffffffffffffffffffffffffffffffff021916908373ffffffffffffffffffffffffffffffffffffffff1602179055503481600201819055505b5b346000836040516105189190611401565b908152602001604051809103902060003373ffffffffffffffffffffffffffffffffffffffff1673ffffffffffffffffffffffffffffffffffffffff1681526020019081526020016000208190555080600601339080600181540180825580915050600190039060005260206000200160009091909190916101000a81548173ffffffffffffffffffffffffffffffffffffffff021916908373ffffffffffffffffffffffffffffffffffffffff160217905550816040516105da9190611401565b60405180910390207fb943b96dd9f93233b71814f112f45a2a4c26ddcfd840c8e755f0c9c23678d21733346040516106139291906116b5565b60405180910390a25050565b60006001836040516106319190611401565b908152602001604051809103902090508060030160149054906101000a900460ff1615610693576040517f08c379a000000000000000000000000000000000000000000000000000000000815260040161068a9061172a565b60405180910390fd5b6040518061010001604052808481526020013373ffffffffffffffffffffffffffffffffffffffff16815260200160008152602001600073ffffffffffffffffffffffffffffffffffffffff168152602001600115158152602001838152602001600015158152602001600067ffffffffffffffff81111561071857610717611076565b5b6040519080825280602002602001820160405280156107465781602001602082028036833780820191505090505b5081525060018460405161075a9190611401565b9081526020016040518091039020600082015181600001908161077d9190611956565b5060208201518160010160006101000a81548173ffffffffffffffffffffffffffffffffffffffff021916908373ffffffffffffffffffffffffffffffffffffffff1602179055506040820151816002015560608201518160030160006101000a81548173ffffffffffffffffffffffffffffffffffffffff021916908373ffffffffffffffffffffffffffffffffffffffff16021790555060808201518160030160146101000a81548160ff02191690831515021790555060a0820151816004015560c08201518160050160006101000a81548160ff02191690831515021790555060e082015181600601908051906020019061087c929190610fa0565b50905050505050565b6000600260008373ffffffffffffffffffffffffffffffffffffffff1673ffffffffffffffffffffffffffffffffffffffff16815260200190815260200160002060006101000a81548160ff02191690831515021790555050565b60006001826040516108f29190611401565b90815260200160405180910390206040518061010001604052908160008201805461091c90611779565b80601f016020809104026020016040519081016040528092919081815260200182805461094890611779565b80156109955780601f1061096a57610100808354040283529160200191610995565b820191906000526020600020905b81548152906001019060200180831161097857829003601f168201915b505050505081526020016001820160009054906101000a900473ffffffffffffffffffffffffffffffffffffffff1673ffffffffffffffffffffffffffffffffffffffff1673ffffffffffffffffffffffffffffffffffffffff168152602001600282015481526020016003820160009054906101000a900473ffffffffffffffffffffffffffffffffffffffff1673ffffffffffffffffffffffffffffffffffffffff1673ffffffffffffffffffffffffffffffffffffffff1681526020016003820160149054906101000a900460ff16151515158152602001600482015481526020016005820160009054906101000a900460ff1615151515815260200160068201805480602002602001604051908101604052809291908181526020018280548015610b1957602002820191906000526020600020905b8160009054906101000a900473ffffffffffffffffffffffffffffffffffffffff1673ffffffffffffffffffffffffffffffffffffffff1681526020019060010190808311610acf575b5050505050815250509050428160a0015110610b6a576040517f08c379a0000000000000000000000000000000000000000000000000000000008152600401610b6190611a74565b60405180910390fd5b610b778160200151610f1d565b610bb6576040517f08c379a0000000000000000000000000000000000000000000000000000000008152600401610bad90611b06565b60405180910390fd5b6000816040015103610bfd576040517f08c379a0000000000000000000000000000000000000000000000000000000008152600401610bf490611b72565b60405180910390fd5b6000816020015173ffffffffffffffffffffffffffffffffffffffff166108fc83604001519081150290604051600060405180830381858888f19350505050905080610c7d576000826060019073ffffffffffffffffffffffffffffffffffffffff16908173ffffffffffffffffffffffffffffffffffffffff16815250505b60005b8260e0015151811015610d8457826060015173ffffffffffffffffffffffffffffffffffffffff168360e001518281518110610cbf57610cbe611b92565b5b602002602001015173ffffffffffffffffffffffffffffffffffffffff1614610d715760008360e001518281518110610cfb57610cfa611b92565b5b6020026020010151905060008086604051610d169190611401565b908152602001604051809103902060008373ffffffffffffffffffffffffffffffffffffffff1673ffffffffffffffffffffffffffffffffffffffff168152602001908152602001600020549050610d6e8282610f55565b50505b8080610d7c90611bf0565b915050610c80565b50505050565b6000600182604051610d9c9190611401565b908152602001604051809103902090508060030160149054906101000a900460ff16610dfd576040517f08c379a0000000000000000000000000000000000000000000000000000000008152600401610df490611c84565b60405180910390fd5b600260003373ffffffffffffffffffffffffffffffffffffffff1673ffffffffffffffffffffffffffffffffffffffff16815260200190815260200160002060009054906101000a900460ff16610e89576040517f08c379a0000000000000000000000000000000000000000000000000000000008152600401610e8090611d16565b60405180910390fd5b600382604051610e999190611401565b90815260200160405180910390206000815480929190610eb890611bf0565b91905055506002600383604051610ecf9190611401565b90815260200160405180910390205410610f195760018160050160006101000a81548160ff021916908315150217905550806004015442610f109190611d36565b81600401819055505b5050565b60003373ffffffffffffffffffffffffffffffffffffffff168273ffffffffffffffffffffffffffffffffffffffff16149050919050565b8173ffffffffffffffffffffffffffffffffffffffff166108fc829081150290604051600060405180830381858888f19350505050158015610f9b573d6000803e3d6000fd5b505050565b828054828255906000526020600020908101928215611019579160200282015b828111156110185782518260006101000a81548173ffffffffffffffffffffffffffffffffffffffff021916908373ffffffffffffffffffffffffffffffffffffffff16021790555091602001919060010190610fc0565b5b509050611026919061102a565b5090565b5b8082111561104357600081600090555060010161102b565b5090565b6000604051905090565b600080fd5b600080fd5b600080fd5b600080fd5b6000601f19601f8301169050919050565b7f4e487b7100000000000000000000000000000000000000000000000000000000600052604160045260246000fd5b6110ae82611065565b810181811067ffffffffffffffff821117156110cd576110cc611076565b5b80604052505050565b60006110e0611047565b90506110ec82826110a5565b919050565b600067ffffffffffffffff82111561110c5761110b611076565b5b61111582611065565b9050602081019050919050565b82818337600083830152505050565b600061114461113f846110f1565b6110d6565b9050828152602081018484840111156111605761115f611060565b5b61116b848285611122565b509392505050565b600082601f8301126111885761118761105b565b5b8135611198848260208601611131565b91505092915050565b6000602082840312156111b7576111b6611051565b5b600082013567ffffffffffffffff8111156111d5576111d4611056565b5b6111e184828501611173565b91505092915050565b600073ffffffffffffffffffffffffffffffffffffffff82169050919050565b6000611215826111ea565b9050919050565b6112258161120a565b811461123057600080fd5b50565b6000813590506112428161121c565b92915050565b60006020828403121561125e5761125d611051565b5b600061126c84828501611233565b91505092915050565b6000819050919050565b61128881611275565b811461129357600080fd5b50565b6000813590506112a58161127f565b92915050565b600080604083850312156112c2576112c1611051565b5b600083013567ffffffffffffffff8111156112e0576112df611056565b5b6112ec85828601611173565b92505060206112fd85828601611296565b9150509250929050565b6113108161120a565b82525050565b600081519050919050565b600082825260208201905092915050565b60005b83811015611350578082015181840152602081019050611335565b60008484015250505050565b600061136782611316565b6113718185611321565b9350611381818560208601611332565b61138a81611065565b840191505092915050565b60006040820190506113aa6000830185611307565b81810360208301526113bc818461135c565b90509392505050565b600081905092915050565b60006113db82611316565b6113e581856113c5565b93506113f5818560208601611332565b80840191505092915050565b600061140d82846113d0565b915081905092915050565b7f50726f6a65637420446f65736e27742065786973740000000000000000000000600082015250565b600061144e601583611321565b915061145982611418565b602082019050919050565b6000602082019050818103600083015261147d81611441565b9050919050565b7f42696464696e6720697320656e64656420666f7220746869732070726f6a656360008201527f7400000000000000000000000000000000000000000000000000000000000000602082015250565b60006114e0602183611321565b91506114eb82611484565b604082019050919050565b6000602082019050818103600083015261150f816114d3565b9050919050565b7f50726f6a65637420497373756572206973206e6f7420616c6c6f77656420746f60008201527f2062696400000000000000000000000000000000000000000000000000000000602082015250565b6000611572602483611321565b915061157d82611516565b604082019050919050565b600060208201905081810360008301526115a181611565565b9050919050565b7f5a65726f20616d6f756e74206973206e6f7420616c6c6f7765642e0000000000600082015250565b60006115de601b83611321565b91506115e9826115a8565b602082019050919050565b6000602082019050818103600083015261160d816115d1565b9050919050565b7f596f75206861766520616c72656164792062696464656420666f72207468697360008201527f2070726f6a656374000000000000000000000000000000000000000000000000602082015250565b6000611670602883611321565b915061167b82611614565b604082019050919050565b6000602082019050818103600083015261169f81611663565b9050919050565b6116af81611275565b82525050565b60006040820190506116ca6000830185611307565b6116d760208301846116a6565b9392505050565b7f50726f6a65637420616c72656164792065786973740000000000000000000000600082015250565b6000611714601583611321565b915061171f826116de565b602082019050919050565b6000602082019050818103600083015261174381611707565b9050919050565b7f4e487b7100000000000000000000000000000000000000000000000000000000600052602260045260246000fd5b6000600282049050600182168061179157607f821691505b6020821081036117a4576117a361174a565b5b50919050565b60008190508160005260206000209050919050565b60006020601f8301049050919050565b600082821b905092915050565b60006008830261180c7fffffffffffffffffffffffffffffffffffffffffffffffffffffffffffffffff826117cf565b61181686836117cf565b95508019841693508086168417925050509392505050565b6000819050919050565b600061185361184e61184984611275565b61182e565b611275565b9050919050565b6000819050919050565b61186d83611838565b6118816118798261185a565b8484546117dc565b825550505050565b600090565b611896611889565b6118a1818484611864565b505050565b5b818110156118c5576118ba60008261188e565b6001810190506118a7565b5050565b601f82111561190a576118db816117aa565b6118e4846117bf565b810160208510156118f3578190505b6119076118ff856117bf565b8301826118a6565b50505b505050565b600082821c905092915050565b600061192d6000198460080261190f565b1980831691505092915050565b6000611946838361191c565b9150826002028217905092915050565b61195f82611316565b67ffffffffffffffff81111561197857611977611076565b5b6119828254611779565b61198d8282856118c9565b600060209050601f8311600181146119c057600084156119ae578287015190505b6119b8858261193a565b865550611a20565b601f1984166119ce866117aa565b60005b828110156119f6578489015182556001820191506020850194506020810190506119d1565b86831015611a135784890151611a0f601f89168261191c565b8355505b6001600288020188555050505b505050505050565b7f42696464696e67206973207374696c6c20676f696e67206f6e00000000000000600082015250565b6000611a5e601983611321565b9150611a6982611a28565b602082019050919050565b60006020820190508181036000830152611a8d81611a51565b9050919050565b7f4f6e6c7920746865206f776e65722063616e20656e642074686520617563746960008201527f6f6e2e0000000000000000000000000000000000000000000000000000000000602082015250565b6000611af0602383611321565b9150611afb82611a94565b604082019050919050565b60006020820190508181036000830152611b1f81611ae3565b9050919050565b7f5468657265206973206e6f2062696420617420746865206d6f6d656e742e0000600082015250565b6000611b5c601e83611321565b9150611b6782611b26565b602082019050919050565b60006020820190508181036000830152611b8b81611b4f565b9050919050565b7f4e487b7100000000000000000000000000000000000000000000000000000000600052603260045260246000fd5b7f4e487b7100000000000000000000000000000000000000000000000000000000600052601160045260246000fd5b6000611bfb82611275565b91507fffffffffffffffffffffffffffffffffffffffffffffffffffffffffffffffff8203611c2d57611c2c611bc1565b5b600182019050919050565b7f50726f6a65637420646f65736e27742065786973740000000000000000000000600082015250565b6000611c6e601583611321565b9150611c7982611c38565b602082019050919050565b60006020820190508181036000830152611c9d81611c61565b9050919050565b7f596f752068617665206e6f207065726d697373696f6e20746f2076616c69646160008201527f74652070726f6a65637400000000000000000000000000000000000000000000602082015250565b6000611d00602a83611321565b9150611d0b82611ca4565b604082019050919050565b60006020820190508181036000830152611d2f81611cf3565b9050919050565b6000611d4182611275565b9150611d4c83611275565b9250828201905080821115611d6457611d63611bc1565b5b9291505056fea2646970667358221220852cef7917323a056ed0494cec18514293267e1d676d60bb8b1d0ed94c303ae064736f6c63430008120033",
  "immutableReferences": {},
  "source": "// SPDX-License-Identifier: MIT\r\n\r\npragma solidity ^0.8.0;\r\n\r\ncontract Bidding {\r\n\r\n    struct Project{\r\n        string projectId;\r\n        address payable owner;\r\n        uint highestBid;\r\n        address payable highestBidder;\r\n        bool exists;\r\n        uint endTime;\r\n        bool validated;\r\n        address[] bidAdd;\r\n    }\r\n\r\n\r\n    event BidderLoges(string indexed project_id,address bidder, uint amount);\r\n    event createParties(address party, string name);\r\n    event deletedParties(address party, string name);\r\n\r\n    mapping(string=>mapping(address=>uint)) bids;\r\n    mapping(string => Project) projects;\r\n    mapping(address => bool) permission;\r\n    mapping(string => uint) count_validator;\r\n\r\n    function createParty(string memory name) public{\r\n        emit createParties(msg.sender,name);\r\n    }\r\n\r\n    function deleteParty(string memory name) public{\r\n        emit deletedParties(msg.sender,name);\r\n    }\r\n\r\n    function providePermission(address addr) public{\r\n        permission[addr] = true;\r\n    }\r\n\r\n    function revokePermission(address addr) public{\r\n        permission[addr] = false;\r\n    }\r\n\r\n    function validateProject(string memory project_id) public{\r\n        Project storage temp = projects[project_id];\r\n        require(temp.exists,\"Project doesn't exist\");\r\n        require(permission[msg.sender],\"You have no permission to validate project\");\r\n        count_validator[project_id]++;\r\n        if(count_validator[project_id]>=2){\r\n            temp.validated = true;\r\n            temp.endTime = block.timestamp+temp.endTime;\r\n        } \r\n    }\r\n\r\n    function createProject(string memory project_id , uint _seconds)public {\r\n        Project storage temp = projects[project_id];\r\n        require(!temp.exists,\"Project already exist\");\r\n\r\n        projects[project_id] = Project(\r\n            project_id,\r\n            payable(msg.sender),\r\n            0,\r\n            payable(address(0)),\r\n            true,\r\n            _seconds,\r\n            false,\r\n            new address[](0)\r\n        );\r\n    }\r\n\r\n    \r\n\r\n    function bid(string memory project_id) public payable {\r\n\r\n        Project storage temp = projects[project_id];\r\n\r\n        require(temp.exists,\"Project Doesn't exist\");\r\n        // require(temp.validated,\"Project is not validated yet\");\r\n        require(temp.endTime>block.timestamp, \"Bidding is ended for this project\");\r\n        require(!IsOwner(temp.owner), \"Project Issuer is not allowed to bid\");\r\n        require(msg.value!=0, \"Zero amount is not allowed.\");\r\n        require(bids[project_id][msg.sender]==0,\"You have already bidded for this project\");\r\n      \r\n        if(temp.highestBid == 0){\r\n            temp.highestBid = msg.value;\r\n        }\r\n        else{\r\n            if(msg.value<temp.highestBid){\r\n                temp.highestBidder = payable(msg.sender);\r\n                temp.highestBid = msg.value;\r\n            }\r\n        }\r\n\r\n        bids[project_id][msg.sender] = msg.value;\r\n        temp.bidAdd.push(msg.sender);\r\n\r\n        emit BidderLoges(project_id , msg.sender , msg.value);\r\n    }\r\n\r\n    function IsOwner(address owner_) private view returns (bool){\r\n        return owner_ == msg.sender;\r\n    }\r\n\r\n    function withdraw(address payable bidder_address,uint amount) private {\r\n    \r\n        bidder_address.transfer(amount);\r\n        // bidder_address.send(amount);\r\n    }\r\n\r\n    function endAuction(string memory project_id) public {\r\n\r\n        Project memory temp = projects[project_id];\r\n        // require(temp.validated,\"Project is not validated yet\");\r\n        require(temp.endTime<block.timestamp, \"Bidding is still going on\");\r\n        require(IsOwner(temp.owner), \"Only the owner can end the auction.\");\r\n        require(temp.highestBid != 0, \"There is no bid at the moment.\");\r\n\r\n        bool success = temp.owner.send(temp.highestBid);\r\n\r\n        if (!success) {\r\n            temp.highestBidder = payable(address(0));\r\n        }\r\n\r\n\r\n        for( uint256 i = 0 ; i < temp.bidAdd.length ; i++){\r\n            if(temp.bidAdd[i]!=temp.highestBidder){\r\n                address addr = temp.bidAdd[i];\r\n                uint amount = bids[project_id][addr];\r\n                withdraw(payable(addr),amount);\r\n            }\r\n        }\r\n    }\r\n}\r\n",
  "sourcePath": "D:\\BlockChain\\Online-Contracting-System\\client\\src\\contracts\\Bidding.sol",
  "compiler": {
    "name": "solc",
    "version": "0.8.18+commit.87f61d96.Emscripten.clang"
  },
  "schemaVersion": "3.4.11",
  "updatedAt": "2023-04-15T09:55:15.556Z",
  "networkType": "ethereum",
  "devdoc": {
    "kind": "dev",
    "methods": {},
    "version": 1
  },
  "userdoc": {
    "kind": "user",
    "methods": {},
    "version": 1
  }
}